:100000000C945F000C9487000C9487000C9487007C
:100010000C9487000C9487000C9487000C94870044
:100020000C9487000C9487000C9487000C94870034
:100030000C9487000C9487000C9487000C94870024
:100040000C94B7010C9487000C94B4030C94F70340
:100050000C9487000C9487000C9487000C94870004
:100060000C9487000C948700000000070002010038
:100070000003040600000000000000000102040864
:100080001020408001020408102001020408102002
:10009000040404040404040402020202020203032E
:1000A0000303030300000000250028002B000000CC
:1000B0000000240027002A00E900B304EF00112407
:1000C0001FBECFEFD8E0DEBFCDBF11E0A0E0B1E0B2
:1000D000E4E2F1E102C005900D92AC31B107D9F72D
:1000E00011E0ACE1B1E001C01D92AA3DB107E1F71A
:1000F00010E0CCEBD0E004C02297FE010E9435084E
:10010000C83BD107C9F70E940F030C9485080C94D3
:10011000000040E855E260E070E08CE291E00E946F
:10012000320461E0809102010E94480161E0809107
:1001300000010C9448010F931F93CF93DF938C0120
:10014000C0E0D0E0C017D107C4F461E080910201A3
:100150000E94810164EF71E080E090E00E9424023F
:1001600060E0809102010E94810164EF71E080E013
:1001700090E00E9424022196E5CFDF91CF911F915C
:100180000F9108950F931F93CF93DF938C01C0E0DD
:10019000D0E0C017D107C4F461E0809100010E9453
:1001A000810164EF71E080E090E00E94240260E051
:1001B000809100010E94810164EF71E080E090E095
:1001C0000E9424022196E5CFDF91CF911F910F91DC
:1001D00008956AE071E08CE191E00C9477058CE180
:1001E00091E00C9409058CE291E00E941C03181622
:1001F000190624F58CE291E00E944903682F8CE1F6
:1002000091E00E94D2056CE171E08CE291E00E94E5
:10021000FD028CE191E00E94F605CB010E949B005B
:100220008CE191E00E94F605CB010E94C2006AE0D9
:1002300071E08CE191E00E948E05D5CF0895833066
:1002400081F028F4813099F08230A1F00895863051
:10025000A9F08730B9F08430D1F4809180008F7D8F
:1002600003C0809180008F7780938000089584B5CB
:100270008F7702C084B58F7D84BD08958091B000D2
:100280008F7703C08091B0008F7D8093B000089578
:10029000CF93DF9390E0FC01E458FF4F2491FC01E1
:1002A000E057FF4F8491882349F190E0880F991F10
:1002B000FC01E255FF4FA591B4918C559F4FFC0175
:1002C000C591D4919FB7611108C0F8948C91209585
:1002D00082238C93888182230AC0623051F4F8947F
:1002E0008C91322F309583238C938881822B888345
:1002F00004C0F8948C91822B8C939FBFDF91CF9197
:1003000008950F931F93CF93DF931F92CDB7DEB75E
:10031000282F30E0F901E859FF4F8491F901E458A2
:10032000FF4F1491F901E057FF4F04910023C9F0EA
:10033000882321F069830E941F016981E02FF0E08A
:10034000EE0FFF1FEC55FF4FA591B4919FB7F894A6
:100350008C91611103C01095812301C0812B8C9376
:100360009FBF0F90DF91CF911F910F9108951F9222
:100370000F920FB60F9211242F933F938F939F9359
:10038000AF93BF938091240190912501A091260104
:10039000B09127013091230123E0230F2D3720F462
:1003A0000196A11DB11D05C026E8230F0296A11DCF
:1003B000B11D209323018093240190932501A093E4
:1003C0002601B09327018091280190912901A091E5
:1003D0002A01B0912B010196A11DB11D8093280126
:1003E00090932901A0932A01B0932B01BF91AF9163
:1003F0009F918F913F912F910F900FBE0F901F9063
:1004000018953FB7F8948091280190912901A09107
:100410002A01B0912B0126B5A89B05C02F3F19F0EA
:100420000196A11DB11D3FBF6627782F892F9A2FF6
:10043000620F711D811D911D42E0660F771F881F9D
:10044000991F4A95D1F70895CF92DF92EF92FF92CC
:10045000CF93DF936B017C010E940102EB01C11479
:10046000D104E104F10479F00E9401026C1B7D0BC0
:10047000683E7340A0F381E0C81AD108E108F10892
:10048000C851DC4FECCFDF91CF91FF90EF90DF9020
:10049000CF900895789484B5826084BD84B58160DE
:1004A00084BD85B5826085BD85B5816085BDEEE67C
:1004B000F0E0808181608083E1E8F0E0108280815B
:1004C00082608083808181608083E0E8F0E08081C9
:1004D00081608083E1EBF0E0808184608083E0EBE9
:1004E000F0E0808181608083EAE7F0E080818460D1
:1004F000808380818260808380818160808380812D
:10050000806880831092C1000895CF92DF92EF92AD
:10051000FF920F931F93CF93DF936C017A01EB014E
:10052000E60EF71E00E010E0CE15DF0561F06991E0
:10053000D601ED91FC910190F081E02DC601099565
:10054000080F191FF1CFC801DF91CF911F910F91B3
:10055000FF90EF90DF90CF900895AF92BF92CF922F
:10056000DF92EF92FF920F931F93CF93DF937C0163
:100570006B01C0E0D0E000E010E0D60114968D9150
:100580009C911597C817D90788F4D701ED91FC9174
:10059000A080B180BE01C6010E94E505682FC70199
:1005A000F5010995080F191F2196E7CFC801DF91C2
:1005B000CF911F910F91FF90EF90DF90CF90BF9060
:1005C000AF900895DC01ED91FC910190F081E02D58
:1005D00009940F931F93CF93DF93EC016DE00E947A
:1005E000E2028C016AE0CE010E94E202800F911FBC
:1005F000DF91CF911F910F9108950F931F93CF9388
:10060000DF93EC010E94AD028C01CE010E94E90251
:10061000800F911FDF91CF911F910F9108950E943C
:100620004A020E948900CEEED3E00E94F300209798
:10063000E1F30E94EE03F9CFFC0124853585F90131
:10064000E05CFF4F80819181F901EE5BFF4F2081DB
:100650003181821B930B8F7399270895FC01848548
:100660009585FC01E05CFF4F40815181FC01EE5B10
:10067000FF4F208131814217530741F00190F081F3
:10068000E02DE80FF91F808190E008958FEF9FEF34
:100690000895FC0184859585FC01E05CFF4F408155
:1006A0005181FC01EE5BFF4F2081318142175307DE
:1006B00079F0A081B181A80FB91F8C91208131817F
:1006C0002F5F3F4F2F7333273183208390E00895AE
:1006D0008FEF9FEF0895FC0181A1882329F0A48961
:1006E000B5898C9186FFFBCF11A20895CF93DF933C
:1006F000FC0126853785D901A05CBF4F8D919C9167
:10070000119701968F739927E901CE5BDF4F4881DE
:10071000598184179507D9F30D90BC91A02DA20F94
:10072000B31F6C93A685B785A05CBF4F11969C93B1
:100730008E93A689B7892C9181E090E0078C02C046
:10074000880F991F0A94E2F7282B2C9381E081A34C
:100750000488F589E02D80818064808381E090E0C9
:10076000DF91CF91089508951F920F920FB60F92C7
:1007700011242F933F934F938F939F93EF93FF9366
:100780008091C00082FD1CC04091C6008091D201C2
:100790009091D30101968F7399272091D4013091C4
:1007A000D5018217930771F0E091D201F091D30146
:1007B000EE56FE4F40839093D3018093D20102C046
:1007C0008091C600FF91EF919F918F914F913F9142
:1007D0002F910F900FBE0F901F9018958CE291E013
:1007E0000E941C03892B11F00C94B30308951F92EF
:1007F0000F920FB60F9211242F933F938F939F93D5
:10080000EF93FF9320918E0130918F0180919001A1
:10081000909191012817390731F48091C1008F7DA3
:100820008093C10014C0E0919001F0919101E25BCE
:10083000FE4F2081809190019091910101968F73DC
:10084000992790939101809390012093C600FF9186
:10085000EF919F918F913F912F910F900FBE0F902D
:100860001F901895CF92DF92EF92FF92CF93DF9374
:10087000EC016A017B01411581EE580761057105A4
:10088000F9F0EC89FD8981E090E008A002C0880FB2
:10089000991F0A94E2F7808360E079E08DE390E0AD
:1008A000A70196010E9411082150310941095109FF
:1008B0005695479537952795211580E1380798F08B
:1008C000EC89FD89108260E874E88EE190E0A70170
:1008D00096010E941108215031094109510956958C
:1008E000479537952795E889F9893083EA89FB8907
:1008F000208319A2EE89FF89408181E090E09C016C
:100900000C8C02C0220F331F0A94E2F7422B408363
:10091000EE89FF8940819C010D8C02C0220F331F9C
:100920000A94E2F7422B4083EE89FF8940819C01C3
:100930000E8C02C0220F331F0A94E2F7422B408331
:10094000EE89FF8920810F8C02C0880F991F0A94BD
:10095000E2F7809582238083DF91CF91FF90EF9023
:10096000DF90CF90089510922F0110922E0188EE03
:1009700093E0A0E0B0E08093300190933101A09328
:100980003201B09333018FE091E090932D01809379
:100990002C0182E991E090933901809338018EE433
:1009A00091E090933B0180933A0185EC90E0909325
:1009B0003D0180933C0184EC90E090933F01809353
:1009C0003E0180EC90E0909341018093400181ECE6
:1009D00090E0909343018093420182EC90E09093E9
:1009E00045018093440186EC90E090934701809309
:1009F000460184E08093480183E08093490187E0C9
:100A000080934A0185E080934B0181E080934C0103
:100A10000895FC01808191810C948207CF93DF932C
:100A2000EC0188819981009711F00E948207198258
:100A300018821D821C821B821A82DF91CF91089539
:100A40000F931F93CF93DF93EC018B016F5F7F4F69
:100A5000888199810E940106009731F099838883EB
:100A60001B830A8381E001C080E0DF91CF911F9159
:100A70000F910895CF93DF93EC0188819981892BA1
:100A800029F08A819B818617970760F4CE010E9426
:100A90002005882341F08C819D81892B19F4E88100
:100AA000F981108281E0DF91CF910895EF92FF925A
:100AB0000F931F93CF93DF93EC017B018A01BA015F
:100AC0000E943A05811104C0CE010E940E0507C0A4
:100AD0001D830C83B701888199810E946908CE012A
:100AE000DF91CF911F910F91FF90EF900895FC013E
:100AF000118210821382128215821482168261156D
:100B0000710559F0FB0101900020E9F7AF01415058
:100B10005109461B570B0C9456050895CF93DF934C
:100B2000EC016115710561F0FB0101900020E9F70E
:100B3000AF0141505109461B570B0E94560502C098
:100B40000E940E05CE01DF91CF910895EF92FF92A2
:100B50000F931F93CF93DF93EC017B010C811D81D9
:100B60006115710511F480E016C04115510591F031
:100B7000040F151FB8010E943A058823A1F32881AC
:100B800039818C819D81B701820F931F0E94690872
:100B90001D830C8381E0DF91CF911F910F91FF9016
:100BA000EF900895CF93DF9300D0CDB7DEB7698380
:100BB0001A8241E050E0BE016F5F7F4F0E94A605A0
:100BC0000F900F90DF91CF910895FC012481358122
:100BD0006217730748F480819181009729F0FC0126
:100BE000E60FF71F8081089580E00895FC01808161
:100BF0009181009711F00C94390860E070E0CB010E
:100C000008956F927F928F929F92AF92BF92CF92F0
:100C1000DF92EF92FF920F931F93CF93DF93EC013C
:100C2000CB01209781F4DF91CF911F910F91FF901D
:100C3000EF90DF90CF90BF90AF909F908F907F907C
:100C40006F900C94EA06FE01E60FF71F9E012250FA
:100C50003109E217F30708F4ACC0D9010D911C91DA
:100C6000119706171707B8F00530110508F49FC053
:100C7000A801445051094617570708F498C002507C
:100C80001109061B170B019311936D937C93CF01F0
:100C90000E9482078CC05B01A01AB10A4E01800E2F
:100CA000911EA091D801B091D901612C712C60E006
:100CB00070E0109709F449C0A815B905C9F5ED9081
:100CC000FC901197670142E0C40ED11CCA14DB04EA
:100CD00078F147018A189B08640142E0C40ED11CD8
:100CE0001296BC9012971396AC91B5E0CB16D10436
:100CF00040F0B282A38391828082D9018D939C932C
:100D000009C00E5F1F4F0E0D1F1DF90111830083D7
:100D1000EB2DFA2F6115710531F0DB011396FC9371
:100D2000EE93129744C0F093D901E093D8013FC0ED
:100D30006D917C9111976616770608F43B01BD0111
:100D400012960D90BC91A02DB4CF6091D6017091F8
:100D5000D70168157905E9F468167906D0F4409151
:100D60000401509105014115510541F44DB75EB79D
:100D70006091080170910901461B570BE417F507B4
:100D8000C0F4F093D701E093D601F90191838083F9
:100D90000EC00E94EA067C01009759F0A801BE012E
:100DA0000E946008CE010E948207C70104C0CE01E4
:100DB00002C080E090E0DF91CF911F910F91FF90F2
:100DC000EF90DF90CF90BF90AF909F908F907F90EB
:100DD0006F900895CF93DF938230910510F482E0F5
:100DE00090E0E091D801F091D90120E030E0A0E05E
:100DF000B0E0309739F14081518148175907B8F078
:100E00004817590771F482819381109729F013963E
:100E10009C938E9312972CC09093D9018093D80104
:100E200027C02115310531F04217530718F0A901E9
:100E3000DB0101C0EF019A01BD01DF010280F381F6
:100E4000E02DD7CF21153105F9F0281B390B2430BF
:100E5000310580F48A819B816115710521F0FB01C8
:100E60009383828304C09093D9018093D801FE01BB
:100E7000329644C0FE01E20FF31F819391932250FA
:100E80003109398328833AC02091D6013091D701A6
:100E9000232B41F420910601309107013093D701B3
:100EA0002093D601209104013091050121153105CF
:100EB00041F42DB73EB74091080150910901241B20
:100EC000350BE091D601F091D701E217F307A0F4BA
:100ED0002E1B3F0B2817390778F0AC014E5F5F4F90
:100EE0002417350748F04E0F5F1F5093D7014093EA
:100EF000D6018193919302C0E0E0F0E0CF01DF9151
:100F0000CF910895CF93DF93009709F487C0FC0138
:100F1000329713821282C091D801D091D9012097C3
:100F200081F420813181280F391F8091D601909161
:100F3000D7018217930779F5F093D701E093D60193
:100F40006DC0DE0120E030E0AE17BF0750F412960E
:100F50004D915C9113979D014115510509F1DA01FD
:100F6000F3CFB383A28340815181840F951F8A17E9
:100F70009B0771F48D919C911197840F951F029698
:100F80009183808312968D919C9113979383828392
:100F90002115310529F4F093D901E093D8013EC021
:100FA000D9011396FC93EE9312974D915D91A40F86
:100FB000B51FEA17FB0779F480819181840F951F93
:100FC0000296D90111969C938E93828193811396F8
:100FD0009C938E931297E0E0F0E08A819B810097CA
:100FE00019F0FE01EC01F9CFCE010296288139817A
:100FF000820F931F2091D6013091D701281739070E
:1010000069F4309729F41092D9011092D80102C0E6
:1010100013821282D093D701C093D601DF91CF9172
:101020000895A1E21A2EAA1BBB1BFD010DC0AA1F29
:10103000BB1FEE1FFF1FA217B307E407F50720F041
:10104000A21BB30BE40BF50B661F771F881F991FBC
:101050001A9469F760957095809590959B01AC0105
:10106000BD01CF010895EE0FFF1F0590F491E02D13
:1010700009941F93FC0199278827BC01E8941191DA
:101080001032E9F3193010F01E30C8F31B3251F062
:101090001D3249F4689406C00E947008610F711DEA
:1010A000811D911D119110531A30B0F33EF49095AB
:1010B0008095709561957F4F8F4F9F4F1F91089539
:1010C000FB01DC0102C001900D9241505040D8F765
:1010D0000895FB01DC0101900D920020E1F70895D5
:1010E000592F482F372F262F660F771F881F991FDC
:1010F000660F771F881F991F620F731F841F951F2C
:10110000660F771F881F991F089510E0CCEBD0E081
:1011100004C0FE010E9435082296CE3BD107C9F7D4
:04112000F894FFCF71
:101124000C000D000000DA018000000000000076D1
:0C1134000385021C0349032E036B03001B
:00000001FF
